:100000000C947D000C9479050C9452050C94A50079
:100010000C94A5000C94A5000C94A5000C94A500CC
:100020000C94A5000C94A5000C94A5000C94A500BC
:100030000C94A5000C94A5000C94A5000C94A500AC
:100040000C9408050C94A5000C94A5000C94A50034
:100050000C94A5000C94A5000C94A5000C94A5008C
:100060000C94A5000C94A5005E01011F010303017F
:10007000008A02010A010202010064001E47040B0B
:100080000906007C0101060103030100F401060ECC
:100090000102020100C20117010102020101000078
:1000A0000000240027002A0000000000250028008E
:1000B0002B00000000002300260029000404040493
:1000C0000404040402020202020203030303030302
:1000D00001020408102040800102040810200102DF
:1000E00004081020000000080002010000030407BB
:1000F0000000000000000000BF0811241FBECFEF69
:10010000D8E0DEBFCDBF11E0A0E0B1E0E8E5F4E16A
:1001100002C005900D92A031B107D9F721E0A0E10E
:10012000B1E001C01D92A73DB207E1F710E0CDE7B5
:10013000D0E004C02197FE010E94240ACC37D107E9
:10014000C9F70E94A0050C942A0A0C940000833081
:1001500081F028F4813099F08230A9F00895873039
:10016000A9F08830C9F08430B1F4809180008F7D8F
:1001700003C0809180008F7780938000089584B5BC
:100180008F7784BD089584B58F7DFBCF8091B000BB
:100190008F778093B00008958091B0008F7DF9CF64
:1001A000CF93DF93282F30E0F901EC51FF4F84917A
:1001B000F901E053FF4FD491F901E454FF4FC4918A
:1001C000CC23A1F081110E94A700EC2FF0E0EE0FEC
:1001D000FF1FEE54FF4FA591B491EC91ED2381E008
:1001E00090E009F480E0DF91CF91089580E090E005
:1001F000FACF1F93CF93DF93282F30E0F901EC5112
:10020000FF4F8491F901E053FF4FD491F901E45479
:10021000FF4FC491CC23A9F0162F81110E94A70093
:10022000EC2FF0E0EE0FFF1FE855FF4FA591B491C2
:100230008FB7F894EC91111108C0D095DE23DC93B0
:100240008FBFDF91CF911F910895DE2BF8CFCF9311
:10025000DF9390E0FC01E053FF4F249184549F4FC3
:10026000FC0184918823D1F090E0880F991FFC0154
:10027000E256FF4FA591B491FC01E855FF4FC5919F
:10028000D491623071F49FB7F8943C91822F80959D
:1002900083238C93E8812E2B28839FBFDF91CF91FE
:1002A00008958FB7F894EC912E2B2C938FBFF6CF37
:1002B0003FB7F8948091A3019091A401A091A5016A
:1002C000B091A60126B5A89B05C02F3F19F0019655
:1002D000A11DB11D3FBFBA2FA92F982F8827BC01A0
:1002E000CD01620F711D811D911D43E0660F771FC7
:1002F000881F991F4A95D1F708958F929F92AF92C8
:10030000BF92CF92DF92EF92FF926B017C010E942D
:1003100058014B015C01C114D104E104F104B9F0AE
:100320000E945801681979098A099B09683E73403F
:100330008105910580F321E0C21AD108E108F10896
:1003400088EE880E83E0981EA11CB11CE4CFFF90BC
:10035000EF90DF90CF90BF90AF909F908F900895D7
:100360002FB7F89460919F017091A0018091A10135
:100370009091A2012FBF08950895CF92DF92EF923E
:10038000FF920F931F93CF93DF9300D000D01F9263
:10039000CDB7DEB710E000E080E090E0DC01C09077
:1003A000A701D090A801E090A901F090AA01C11482
:1003B000D104E104F104D1F00F5F1F4F8C159D05AE
:1003C000AE05BF0511F001E010E01092A7011092F8
:1003D000A8011092A9011092AA016AEF70E080E0D2
:1003E00090E00E947D01D701C601D9CF0097A105F9
:1003F000B10521F021E0043011050CF420E08A83DE
:100400009B83AC83BD83382F4B815C816D8170E011
:1004100080E090E00F900F900F900F900F90DF9181
:10042000CF911F910F91FF90EF90DF90CF900895A3
:10043000CF93865F9E4FFC01C08161E08C2F0E94AC
:10044000270160E08C2F0E94F90064E670E080E0F4
:1004500090E00E947D0162E08C2FCF910C942701E7
:100460008F929F92AF92BF92CF92DF92EF92FF92C4
:100470000F931F93CF938C0183E2869F4001879F48
:10048000900C1124B12CA12C8FE0869F6001879FD6
:10049000D00C1124F12CE12CC0E0C017110694F40B
:1004A00061E08DE00E94F900C501B4010E947D0168
:1004B00060E08DE00E94F900C701B6010E947D0155
:1004C000CF5FEBCFCF911F910F91FF90EF90DF9017
:1004D000CF90BF90AF909F908F90089560E081E1A2
:1004E0000E94F90062E370E080E090E00E947D01EC
:1004F00061E081E10E94F90080E00895CF93DF93ED
:10050000EB010E9497098883CE01DF91CF91089576
:100510000F931F93CF93DF938C01EB010E949709F8
:100520008883C80101960E9497098983CE01DF91D3
:10053000CF911F910F9108952F923F924F925F920A
:100540006F927F928F929F92AF92BF92CF92DF92E3
:10055000EF92FF920F931F93CF93DF93CDB7DEB748
:10056000C958D3400FB6F894DEBF0FBECDBF0E946E
:100570006E028093D601BE016F5F7F4F8AE190E0EB
:100580000E9488027E0187EAE81A8DEFF80AB70117
:100590008CE190E00E947E028E010F5F1F4F580198
:1005A0008DE1C82ED12C22242394312CF501819188
:1005B00091915F01892BB1F0BF01C6010E948802B1
:1005C000B701620D731DC60102960E947E02F3E020
:1005D000CF0ED11C8FEF281A380AECE22E16E1E07C
:1005E0003E0621F7F1E02F1A310861E081E10E9417
:1005F000F90081E08093D6010E94B0014B015C01BB
:100600006701C6018E199F09821593050CF058C029
:10061000F801219131918F01AAE0B0E00E94010A16
:100620002B013C010E94B001681979098A099B09D4
:10063000641575058605970508F05CC00E94BD012C
:10064000CB57DC4F2883C558D340CA57DC4F38837B
:10065000C658D340C957DC4F4883C758D340C85702
:10066000DC4F5883C858D340C757DC4F6883C958FC
:10067000D340CA57DC4F88819981AA81BB81C65873
:10068000D3404091CE015091CF016091D001709143
:10069000D10184179507A607B70771F04091D201E1
:1006A0005091D3016091D4017091D50184179507C1
:1006B000A607B70709F0B6CF0E946E028093D60155
:1006C000C757DC4F0FB6F894DEBF0FBECDBFDF912A
:1006D000CF911F910F91FF90EF90DF90CF90BF903F
:1006E000AF909F908F907F906F905F904F903F90D2
:1006F0002F900895F60181916F0190E00E941802F9
:1007000080CF2F923F924F925F926F927F928F9203
:100710009F92AF92BF92CF92DF92EF92FF920F9390
:100720001F93CF93DF93CDB7DEB761970FB6F894E1
:10073000DEBF0FBECDBF0E9458016B017C018091CE
:100740009A0190919B013601681A790A2DEC621684
:1007500020E1720608F4D1C0809114019091150136
:10076000D301A81BB90BCD01B7FF03C091958195AB
:100770009109883C91050CF0BCC0809112019091C8
:10078000130101969093130180931201029709F0CF
:10079000B0C008E610E0409010015090110149E00F
:1007A00050E0B801CE0101960E948E098B816C81C8
:1007B000681708F4682F70E080911401909115017A
:1007C0000E94100A9B014091000150910101649F19
:1007D000C001659F900D749F900D112464E670E038
:1007E0000E94100A898541E050E0882311F042E020
:1007F00050E08D81829FF001839FF00D1124FB87D3
:10080000EA878E81829FD001839FB00D1124BD871E
:10081000AC878F81829FF001839FF00D1124FF87A9
:10082000EE878885829F1001839F300C1124FA0186
:10083000EE0FFF1FEC5EFE4F812C912C54019201B4
:1008400021503109398B288B888999894817590794
:1008500008F03FC0880C991CAA1CBB1C80819181A8
:100860009C01AA85BB852A1B3B0B37FF03C0319532
:10087000219531092617370770F422813381AC8521
:10088000BD852A1B3B0B37FF03C0319521953109EC
:1008900026173707D0F02E853F85821B930B97FFD5
:1008A00003C091958195910986179707B8F48281C5
:1008B00093818219930997FF03C0919581959109BE
:1008C0008617970758F4689480F84E5F5F4F349608
:1008D000BBCF38E04316510408F051C0075F1F4FEB
:1008E00080E00E39180709F056CF109213011092CC
:1008F000120110921101109210018091100190913B
:1009000011018334910540F01092110110921001F1
:100910001092130110921201809110019091110117
:100920009C012F5F3F4F3093110120931001880FDE
:10093000991FFC01EC5EFE4F71826082C0929A01A9
:10094000D0929B01E0929C01F0929D0161960FB6BE
:10095000F894DEBF0FBECDBFDF91CF911F910F91F5
:10096000FF90EF90DF90CF90BF90AF909F908F90CF
:100970007F906F905F904F903F902F90089580925E
:10098000A7019092A801A092A901B092AA01ADCFAF
:10099000FF920F931F93CF93DF93EC01F62E088104
:1009A0001981C8010E949709F81621F06F2DC8011E
:1009B0000E949F09CE01DF91CF911F910F91FF906F
:1009C0000895EF92FF920F931F93CF93DF9300D080
:1009D000CDB7DEB78C017B019A838983FB016081EF
:1009E000CE0101960E94C8040F5F1F4F1A8309832E
:1009F000F7016181CE0101960E94C804C7010F90E2
:100A00000F90DF91CF911F910F91FF90EF9008957C
:100A10001F920F920FB60F9211242F933F938F9333
:100A20009F93AF93BF9380919F019091A001A0915C
:100A3000A101B091A20130919E0126E0230F2D3734
:100A400058F50296A11DB11D20939E0180939F0130
:100A50009093A001A093A101B093A2018091A30162
:100A60009091A401A091A501B091A6010196A11DAC
:100A7000B11D8093A3019093A401A093A501B0930D
:100A8000A601BF91AF919F918F913F912F910F90B0
:100A90000FBE0F901F90189529E8230F0396A11DF4
:100AA000B11DD2CF1F920F920FB60F9211242F9328
:100AB0003F934F935F936F937F938F939F93AF93E6
:100AC000BF93EF93FF93E0910401F0910501099525
:100AD000FF91EF91BF91AF919F918F917F916F9116
:100AE0005F914F913F912F910F900FBE0F901F90EC
:100AF00018951F920F920FB60F9211242F933F93C8
:100B00004F935F936F937F938F939F93AF93BF9315
:100B1000EF93FF93E0910201F09103010995FF919A
:100B2000EF91BF91AF919F918F917F916F915F9165
:100B30004F913F912F910F900FBE0F901F901895DE
:100B4000CF93DF93CDB7DEB762970FB6F894DEBFD1
:100B50000FBECDBF789484B5826084BD84B58160BA
:100B600084BD85B5826085BD85B5816085BD809178
:100B70006E00816080936E001092810080918100F0
:100B800082608093810080918100816080938100E8
:100B9000809180008160809380008091B1008460AA
:100BA0008093B1008091B00081608093B00080910B
:100BB0007A00846080937A0080917A0082608093CA
:100BC0007A0080917A008E7F80937A0080917A00FB
:100BD000806880937A001092C10080E480937C004A
:100BE00080917A00806480937A0080917A0086FDFB
:100BF000FCCF8091780060917900762F682F072EC6
:100C0000000C880B990B611571058105910511F098
:100C10000E94850980917A008F7780937A0080E81E
:100C200080BF80917E008F6380937E0061E08DE0C5
:100C30000E94270160E08DE00E94F90062E083E0FD
:100C40000E94270170E1E72E71E0F72E0AE011E023
:100C500062E0F80181918F010E942701E016F10600
:100C6000B9F761E081E10E94270161E081E10E9422
:100C7000F9001092AC011092AB011092A7011092F2
:100C8000A8011092A9011092AA0181E893E0909323
:100C9000030180930201809169008C7F81608093C1
:100CA0006900E89A6EEBE62E61E0F62E02E010E0B5
:100CB000C8010E949709F70181937F010F5F1F4FC1
:100CC0000A311105A9F70E94B0016B017C01C092A5
:100CD000BA01D092BB01E092BC01F092BD0183E069
:100CE0000E94D000892B91F40E94B0016C197D09FB
:100CF0008E099F096A3F71058105910538F462E309
:100D000070E080E090E00E947D01E9CF0E94B00198
:100D10006C197D098E099F096A3F7105810591054E
:100D200008F46AC06AE070E08AE090E00E94300255
:100D30005EEBE52E51E0F52E16E00E94B0014B016E
:100D40005C018092BA019092BB01A092BC01B0926A
:100D5000BD018091A7019091A801A091A901B09136
:100D6000AA01892B8A2B8B2B09F492C00E94B00117
:100D7000681979098A099B096131774281059105D2
:100D800008F099C00E94BD013A834B835C836D8358
:100D90008A819B81AC81BD810097A105B10509F4D1
:100DA0008AC0F70180839183A283B3836AE070E0F5
:100DB00085E090E00E9430021150F4E0EF0EF11C4B
:100DC0001111BBCF4EEBE42E41E0F42E02E010E017
:100DD0001F830E83F70161917F01CE0106960E9469
:100DE000C8040F5F1F4F0A31110591F765E070E0ED
:100DF0008AE090E00E9430022AE0422E512C612CC1
:100E0000712C30E0232E30E0332E0E94BD012E8362
:100E10003F83488759876A87CF80D884E984FA84DA
:100E2000C114D104E104F10461F1211147C065E06E
:100E300070E081E090E00E9430029EEBA92E91E0EC
:100E4000B92E10E000E0F50181919191A191B1914D
:100E50005F01C816D906EA06FB0671F48091D60137
:100E6000811107C061E081E10E94F90081E0809377
:100E7000D601C8010E9418020F5F1F4F06301105EE
:100E800011F72114310409F4C0CF0E940000BDCF36
:100E90000E94B001681979098A099B09603177427B
:100EA0008105910508F062CF62E370E080E090E098
:100EB0000E947D014ECF65E070E07ACF69E170E07D
:100EC00081E090E00E9430028091D2019091D301A4
:100ED000A091D401B091D501C816D906EA06FB0647
:100EE000A9F48091D601882309F441C064EF71E030
:100EF00080E090E00E947D0165E070E082E090E09B
:100F00000E9430020E946E028093D6018091CE0131
:100F10009091CF01A091D001B091D101C816D9060E
:100F2000EA06FB0609F0ADCF0E94B0016B017C011F
:100F3000C092BA01D092BB01E092BC01F092BD0117
:100F400083E00E94D000892B91F50E94B0016C19BA
:100F50007D098E099F096A3F71058105910538F564
:100F600062E370E080E090E00E947D01E9CF0E94A2
:100F70006E0261E081E10E94F90081E08093D60178
:100F800010E000E0C8010E9418020F5F1F4F0630FA
:100F90001105C1F764EF71E080E090E00E947D01EF
:100FA00065E070E081E090E00E943002AFCF0E94E7
:100FB000B0016C197D098E099F096A3F7105810591
:100FC000910508F4C3C064EF71E080E090E00E94F6
:100FD0007D0165E070E082E090E00E9430020AE16D
:100FE00010E01C861B86BE01655F7F4FC8010E9412
:100FF000E1040F5F1F4F003AF3E01F0791F70E94D3
:101000006E0261E081E10E94F90081E08093D601E7
:101010000E94B0016F87788B898B9A8B68EE73E0A2
:1010200080E090E00E947D01AA24AA940AE110E0E9
:10103000D12CC12C0E94BD013A834B835C836D830C
:101040008A819B81AC81BD814091CE015091CF01BD
:101050006091D0017091D10184179507A607B70759
:1010600009F467C04091D2015091D3016091D4013D
:101070007091D50184179507A607B70709F459C0E1
:101080000E94B0012F85388949895A89621B730BE8
:10109000840B950B69343BE3730739E083079105B3
:1010A00008F047C0A30192010E94DF0979018AE09C
:1010B000882E81E0982EB12CF40181914F010E947D
:1010C000D000892B11F5BA14F1F061E08DE00E9497
:1010D000F900FE86ED86BE01635F7F4FC8010E9466
:1010E000E104C80102969C878B876B2DCE010B967D
:1010F0000E94C8040D5F1F4FFFEFCF1ADF0A60E0A8
:101100008DE00E94F900AB2C04C0BA1002C0AA24E2
:10111000AA94B39426E0B212CFCF62E370E080E0ED
:1011200090E00E947D013CE2C31631E0D3060CF44E
:1011300081CF64EF71E080E090E00E947D0165E086
:1011400070E082E090E00E9430029BCE64EF71E09C
:1011500080E090E00E947D0165E070E081E090E039
:101160000E9430020E949C0264EF71E080E090E0F7
:101170000E947D0165E070E081E090E0E4CF0F9394
:101180001F93CF93DF93CBEAD1E00FEF1FEF1B83C9
:101190000A838AE090E09D838C8349E050E068E612
:1011A00070E081EB91E00E948E09198308838CE343
:1011B00090E090930101809300011092A70110929A
:1011C000A8011092A9011092AA01DF91CF911F915D
:1011D0000F9108958F929F92AF92BF92CF92DF921C
:1011E000EF92FF92CF93DF93EC01688179818A813E
:1011F0009B81611571058105910521F464E279ED0A
:101200008BE597E02DE133EF41E050E00E94AD091E
:1012100049015A019B01AC01A7EAB1E40E94CC0943
:101220006B017C01ACEEB4EFA50194010E94DA09D8
:10123000C60ED71EE81EF91EF7FE06C081E0C81ACA
:10124000D108E10880E8F80AC882D982EA82FB82E4
:10125000C701B6019F77DF91CF91FF90EF90DF90AC
:10126000CF90BF90AF909F908F9008958F929F9254
:10127000AF92BF92CF92DF92EF92FF926091060100
:101280007091070180910801909109016115710524
:101290008105910521F464E279ED8BE597E02DE17C
:1012A00033EF41E050E00E94AD0949015A019B0132
:1012B000AC01A7EAB1E40E94CC096B017C01ACEE61
:1012C000B4EFA50194010E94DA09C60ED71EE81EEC
:1012D000F91EF7FE06C081E0C81AD108E10880E8CF
:1012E000F80AC0920601D0920701E0920801F0923C
:1012F0000901C701B6019F77FF90EF90DF90CF9073
:10130000BF90AF909F908F90089560930601709367
:10131000070180930801909309010895FB01DC0106
:1013200002C005900D9241505040D8F70895F999A8
:10133000FECF92BD81BDF89A992780B50895262FDA
:10134000F999FECF1FBA92BD81BD20BD0FB6F894AA
:10135000FA9AF99A0FBE01960895052E97FB1EF48E
:1013600000940E94C40957FD07D00E94DF0907FCC2
:1013700003D04EF40C94C4095095409530952195B6
:101380003F4F4F4F5F4F08959095809570956195B1
:101390007F4F8F4F9F4F08950E94010AA59F900D88
:1013A000B49F900DA49F800D911D11240895B7FF47
:1013B0000C94CC090E94CC09821B930B0895A1E2E6
:1013C0001A2EAA1BBB1BFD010DC0AA1FBB1FEE1FBF
:1013D000FF1FA217B307E407F50720F0A21BB30B0A
:1013E000E40BF50B661F771F881F991F1A9469F786
:1013F00060957095809590959B01AC01BD01CF01E2
:101400000895A29FB001B39FC001A39F700D811DDD
:101410001124911DB29F700D811D1124911D0895FD
:10142000AA1BBB1B51E107C0AA1FBB1FA617B7070A
:1014300010F0A61BB70B881F991F5A95A9F7809526
:101440009095BC01CD010895EE0FFF1F0590F4911A
:08145000E02D0994F894FFCF90
:101458003C00BC01BC0101000000090807060504A6
:107800000C94343C0C94513C0C94513C0C94513CE1
:107810000C94513C0C94513C0C94513C0C94513CB4
:107820000C94513C0C94513C0C94513C0C94513CA4
:107830000C94513C0C94513C0C94513C0C94513C94
:107840000C94513C0C94513C0C94513C0C94513C84
:107850000C94513C0C94513C0C94513C0C94513C74
:107860000C94513C0C94513C11241FBECFEFD8E036
:10787000DEBFCDBF11E0A0E0B1E0EAE8FFE702C063
:1078800005900D92A230B107D9F712E0A2E0B1E065
:1078900001C01D92AD30B107E1F70E942D3D0C945F
:1078A000C33F0C94003C982F95959595959595958B
:1078B000905D8F708A307CF0282F295A8091C0000B
:1078C00085FFFCCF9093C6008091C00085FFFCCF60
:1078D0002093C6000895282F205DF0CF982F809127
:1078E000C00085FFFCCF9093C6000895EF92FF92F1
:1078F0000F931F93EE24FF2487018091C00087FD22
:1079000017C00894E11CF11C011D111D81E2E8164D
:1079100081EAF80687E0080780E0180770F3E09135
:107920000401F091050109958091C00087FFE9CF1E
:107930008091C6001F910F91FF90EF9008950E94D3
:10794000763C982F8091C00085FFFCCF9093C600B5
:1079500091362CF490330CF09053892F089597555D
:10796000892F08951F930E949F3C182F0E949F3CCF
:107970001295107F810F1F9108951F93182F882350
:1079800021F00E94763C1150E1F71F9108951F935A
:10799000182F0E94763C803249F0809103018F5F5E
:1079A000809303018530C1F01F9108958091C0003C
:1079B00085FFFCCF84E18093C6008091C00085FFE5
:1079C000FCCF1093C6008091C00085FFFCCF80E102
:1079D0008093C6001F910895E0910401F091050184
:1079E00009951F9108950E94763C803241F0809164
:1079F00003018F5F80930301853081F008958091AA
:107A0000C00085FFFCCF84E18093C6008091C00058
:107A100085FFFCCF80E18093C6000895E0910401CA
:107A2000F09105010995089548EC50E08823A1F0F4
:107A30002D9A28EE33E0FA013197F1F721503040CA
:107A4000D1F72D9828EE33E0FA013197F1F7215064
:107A50003040D1F7815061F708953F924F925F9285
:107A60006F927F928F929F92AF92BF92CF92DF924E
:107A7000EF92FF920F931F93CF93DF93000082E06A
:107A80008093C00080E18093C4001092C50088E11B
:107A90008093C10086E08093C2005098589A259A3E
:107AA00081E00E94143D24E1F22E9EE1E92E85E959
:107AB000D82E0FE0C02E10E1B12EAA24A394B1E479
:107AC0009B2EA6E58A2EF2E57F2EE0E26E2E79E46B
:107AD000572E63E5462E50E5352E0E94763C8033C6
:107AE000B1F18133B9F1803409F46FC0813409F404
:107AF00076C0823409F485C0853409F488C08035A5
:107B000031F1823521F1813511F1853509F485C0D6
:107B1000863509F48DC0843609F496C0843709F49B
:107B200003C1853709F472C1863709F466C08091B4
:107B300003018F5F80930301853079F6E0910401A2
:107B4000F091050109950E94763C803351F60E9420
:107B5000F33CC3CF0E94763C803249F78091C0004D
:107B600085FFFCCFF092C6008091C00085FFFCCF5E
:107B70009092C6008091C00085FFFCCF8092C60025
:107B80008091C00085FFFCCF7092C6008091C0003C
:107B900085FFFCCF6092C6008091C00085FFFCCFBE
:107BA0005092C6008091C00085FFFCCF4092C60075
:107BB0008091C00085FFFCCF3092C6008091C0004C
:107BC00085FFFCCFB092C60088CF0E94763C8638F5
:107BD00008F4BDCF0E94763C0E94F33C7ECF0E9409
:107BE000763C803809F49CC0813809F40BC1823896
:107BF00009F430C1883909F48FC080E00E94C73C85
:107C00006CCF84E10E94BD3C0E94F33C66CF85E0CE
:107C10000E94BD3C0E94F33C60CF0E94763C809362
:107C200006010E94763C809307010E94F33C55CFE9
:107C30000E94763C803309F411C183E00E94BD3C70
:107C400080E00E94C73C49CF0E94763C80930902A5
:107C50000E94763C8093080280910C028E7F809374
:107C60000C020E94763C853409F409C18091080217
:107C700090910902892B89F000E010E00E94763C87
:107C8000F801E85FFE4F80830F5F1F4F809108026D
:107C9000909109020817190788F30E94763C8032F8
:107CA00009F045CF80910C0280FFF5C0609106017C
:107CB00070910701660F771F7093070160930601AB
:107CC000A0910802B09109021097C9F0E8E0F1E034
:107CD0009B01AD014E0F5F1FF999FECF32BD21BD53
:107CE000819180BDFA9AF99A2F5F3F4FE417F5070B
:107CF00099F76A0F7B1F70930701609306018091CB
:107D0000C00085FFFCCFF092C6008091C00085FFC7
:107D1000FCCFB092C600E1CE83E00E94C73CDDCE2E
:107D200082E00E94C73CD9CE0E94763C8093090233
:107D30000E94763C80930802809106019091070191
:107D4000880F991F90930701809306010E94763C4B
:107D5000853409F49AC080910C028E7F80930C02C6
:107D60000E94763C803209F0B8CE8091C00085FF39
:107D7000FCCFF092C600A0910802B09109021097C2
:107D8000C1F180910C02082F0170182F1695117007
:107D9000E0910601F0910701AF014F5F5F4FBA011B
:107DA00020E030E00023B1F4112339F49491809164
:107DB000C00085FFFCCF9093C6002F5F3F4FCB01E3
:107DC0000196FA012A173B0780F4BC014F5F5F4F11
:107DD000002351F3F999FECFF2BDE1BDF89A90B5B9
:107DE0008091C00085FFFCCFE6CF709307016093C0
:107DF00006018091C00085FDE5CE8091C00085FF21
:107E0000F8CFE0CE81E00E94C73C67CE0E94763C6E
:107E1000803209F08CCE8091C00085FFFCCFF092BB
:107E2000C6008091C00085FFFCCFE092C600809123
:107E3000C00085FFFCCFD092C6008091C00085FFB6
:107E4000FCCFC092C6008091C00085FFFCCFB092ED
:107E5000C60043CE80E10E94C73C3FCE0E94763CE4
:107E60000E94763C182F0E94763C112309F483C0AF
:107E7000113009F484C08FE00E94C73C2ECE80915F
:107E80000C02816080930C02F1CE80910C02816023
:107E900080930C0265CF809107018823880F880B9F
:107EA0008A2180930B028091060190910701880F2F
:107EB000991F90930701809306018091080280FF2B
:107EC00009C08091080290910902019690930902DD
:107ED00080930802F894F999FECF1127E0910601EA
:107EE000F0910701C8E0D1E0809108029091090269
:107EF000103091F40091570001700130D9F303E084
:107F000000935700E8950091570001700130D9F3B4
:107F100001E100935700E8950990199000915700EE
:107F200001700130D9F301E000935700E8951395F3
:107F3000103498F011270091570001700130D9F3E7
:107F400005E000935700E89500915700017001305B
:107F5000D9F301E100935700E8953296029709F0B2
:107F6000C7CF103011F00296E5CF11248091C000E8
:107F700085FFC5CEC8CE8EE10E94C73CAECD85E957
:0A7F80000E94C73CAACDF894FFCF81
:027F8A00800075
:040000030000780081
:00000001FF
